{
  "_format": "hh-sol-artifact-1",
  "contractName": "Governance",
  "sourceName": "contracts/Governance.sol",
  "abi": [
    {
      "inputs": [],
      "stateMutability": "nonpayable",
      "type": "constructor"
    },
    {
      "anonymous": false,
      "inputs": [
        {
          "indexed": true,
          "internalType": "address",
          "name": "previousOwner",
          "type": "address"
        },
        {
          "indexed": true,
          "internalType": "address",
          "name": "newOwner",
          "type": "address"
        }
      ],
      "name": "OwnershipTransferred",
      "type": "event"
    },
    {
      "inputs": [
        {
          "internalType": "uint256",
          "name": "_policyID",
          "type": "uint256"
        },
        {
          "internalType": "string",
          "name": "_Proof",
          "type": "string"
        },
        {
          "internalType": "uint256",
          "name": "_claimAmount",
          "type": "uint256"
        }
      ],
      "name": "ApplyClaim",
      "outputs": [],
      "stateMutability": "nonpayable",
      "type": "function"
    },
    {
      "inputs": [
        {
          "internalType": "bool",
          "name": "Voting_side",
          "type": "bool"
        },
        {
          "internalType": "uint256",
          "name": "_claimID",
          "type": "uint256"
        }
      ],
      "name": "Vote",
      "outputs": [],
      "stateMutability": "nonpayable",
      "type": "function"
    },
    {
      "inputs": [
        {
          "internalType": "address",
          "name": "_newHolder",
          "type": "address"
        }
      ],
      "name": "addGovHolder",
      "outputs": [],
      "stateMutability": "nonpayable",
      "type": "function"
    },
    {
      "inputs": [
        {
          "internalType": "uint256",
          "name": "_claimID",
          "type": "uint256"
        }
      ],
      "name": "checkDecision",
      "outputs": [
        {
          "internalType": "bool",
          "name": "decision",
          "type": "bool"
        }
      ],
      "stateMutability": "view",
      "type": "function"
    },
    {
      "inputs": [],
      "name": "minPercVotes",
      "outputs": [
        {
          "internalType": "uint256",
          "name": "",
          "type": "uint256"
        }
      ],
      "stateMutability": "view",
      "type": "function"
    },
    {
      "inputs": [],
      "name": "owner",
      "outputs": [
        {
          "internalType": "address",
          "name": "",
          "type": "address"
        }
      ],
      "stateMutability": "view",
      "type": "function"
    },
    {
      "inputs": [
        {
          "internalType": "address",
          "name": "_newHolder",
          "type": "address"
        }
      ],
      "name": "removeGovHolder",
      "outputs": [],
      "stateMutability": "nonpayable",
      "type": "function"
    },
    {
      "inputs": [],
      "name": "renounceOwnership",
      "outputs": [],
      "stateMutability": "nonpayable",
      "type": "function"
    },
    {
      "inputs": [
        {
          "internalType": "address",
          "name": "_safeZenCA",
          "type": "address"
        }
      ],
      "name": "setSafeZenCA",
      "outputs": [],
      "stateMutability": "nonpayable",
      "type": "function"
    },
    {
      "inputs": [],
      "name": "tokenHolderCount",
      "outputs": [
        {
          "internalType": "uint256",
          "name": "",
          "type": "uint256"
        }
      ],
      "stateMutability": "view",
      "type": "function"
    },
    {
      "inputs": [
        {
          "internalType": "address",
          "name": "newOwner",
          "type": "address"
        }
      ],
      "name": "transferOwnership",
      "outputs": [],
      "stateMutability": "nonpayable",
      "type": "function"
    }
  ],
  "bytecode": "0x6080604052603260025534801561001557600080fd5b5061001f33610024565b610074565b600080546001600160a01b038381166001600160a01b0319831681178455604051919092169283917f8be0079c531659141344cd1fd0a4f28419497f9722a3daafe3b4186f6b6457e09190a35050565b610ba5806100836000396000f3fe608060405234801561001057600080fd5b50600436106100a95760003560e01c8063b9f4a4d411610071578063b9f4a4d414610115578063bb6783d314610128578063be208d451461013b578063d13e58461461014e578063f2fde38b14610157578063f4ab8af91461016a57600080fd5b806316eb259b146100ae578063715018a6146100c35780638da5cb5b146100cb57806390d10d91146100eb57806399df6f5d14610102575b600080fd5b6100c16100bc3660046108fa565b61018d565b005b6100c1610322565b6000546040516001600160a01b0390911681526020015b60405180910390f35b6100f460025481565b6040519081526020016100e2565b6100c16101103660046109d3565b610358565b6100c16101233660046109d3565b6103bb565b6100c16101363660046109d3565b610413565b6100c16101493660046109f7565b61045f565b6100f460035481565b6100c16101653660046109d3565b6106a7565b61017d610178366004610a28565b610742565b60405190151581526020016100e2565b600154604051637454b5a360e11b8152600481018590526000916001600160a01b03169063e8a96b4690602401602060405180830381865afa1580156101d7573d6000803e3d6000fd5b505050506040513d601f19601f820116820180604052508101906101fb9190610a41565b9050336001600160a01b0382161461024e5760405162461bcd60e51b81526020600482015260116024820152702727aa102827a624a1ac902427a62222a960791b60448201526064015b60405180910390fd5b604080516101008101825233815260208082018781528284018781526060840187905260006080850181905260a0850181905260c0850181905260e085018190528981526005845294909420835181546001600160a01b0319166001600160a01b0390911617815590516001820155925180519293849390926102d892600285019291019061084b565b50606082015160038201556080820151600482015560a0820151600582015560c0820151600682015560e0909101516007909101805460ff19169115159190911790555050505050565b6000546001600160a01b0316331461034c5760405162461bcd60e51b815260040161024590610a5e565b61035660006107fb565b565b6000546001600160a01b031633146103825760405162461bcd60e51b815260040161024590610a5e565b6001600160a01b0381166000908152600660205260408120805460ff1916600117905560038054916103b383610aa9565b919050555050565b6000546001600160a01b031633146103e55760405162461bcd60e51b815260040161024590610a5e565b6001600160a01b0381166000908152600660205260408120805460ff1916905560038054916103b383610ac4565b6000546001600160a01b0316331461043d5760405162461bcd60e51b815260040161024590610a5e565b600180546001600160a01b0319166001600160a01b0392909216919091179055565b3360009081526006602052604090205460ff166104b15760405162461bcd60e51b815260206004820152601060248201526f2727aa102a27a5a2a7102427a62222a960811b6044820152606401610245565b6000818152600560209081526040808320600483528184203385529092529091205460ff16156105145760405162461bcd60e51b815260206004820152600e60248201526d1554d15488121054c81593d5115160921b6044820152606401610245565b600781015460ff16156105695760405162461bcd60e51b815260206004820152601960248201527f434c41494d20495320414c524541445920415050524f564544000000000000006044820152606401610245565b600183151514156105ab5760018160060160008282546105899190610adb565b9250508190555060018160040160008282546105a59190610adb565b90915550505b826105e75760018160060160008282546105c59190610adb565b9250508190555060018160050160008282546105e19190610adb565b90915550505b60008281526004602090815260408083203384529091529020805460ff1916600117905561061482610742565b156106a257600781015460ff166106a25760015481546003830154604051633001e5df60e01b81526001600160a01b0392831660048201526024810191909152911690633001e5df90604401600060405180830381600087803b15801561067a57600080fd5b505af115801561068e573d6000803e3d6000fd5b50505060078201805460ff19166001179055505b505050565b6000546001600160a01b031633146106d15760405162461bcd60e51b815260040161024590610a5e565b6001600160a01b0381166107365760405162461bcd60e51b815260206004820152602660248201527f4f776e61626c653a206e6577206f776e657220697320746865207a65726f206160448201526564647265737360d01b6064820152608401610245565b61073f816107fb565b50565b600081815260056020526040812060035461075f90600290610af3565b816006015410156107a95760405162461bcd60e51b81526020600482015260146024820152731393d508115393d551d208121054c81593d5115160621b6044820152606401610245565b600060646002546003546107bd9190610b15565b6107c79190610af3565b9050808260040154106107de575060019392505050565b80826005015411156107f4575060009392505050565b5050919050565b600080546001600160a01b038381166001600160a01b0319831681178455604051919092169283917f8be0079c531659141344cd1fd0a4f28419497f9722a3daafe3b4186f6b6457e09190a35050565b82805461085790610b34565b90600052602060002090601f01602090048101928261087957600085556108bf565b82601f1061089257805160ff19168380011785556108bf565b828001600101855582156108bf579182015b828111156108bf5782518255916020019190600101906108a4565b506108cb9291506108cf565b5090565b5b808211156108cb57600081556001016108d0565b634e487b7160e01b600052604160045260246000fd5b60008060006060848603121561090f57600080fd5b83359250602084013567ffffffffffffffff8082111561092e57600080fd5b818601915086601f83011261094257600080fd5b813581811115610954576109546108e4565b604051601f8201601f19908116603f0116810190838211818310171561097c5761097c6108e4565b8160405282815289602084870101111561099557600080fd5b826020860160208301376000602084830101528096505050505050604084013590509250925092565b6001600160a01b038116811461073f57600080fd5b6000602082840312156109e557600080fd5b81356109f0816109be565b9392505050565b60008060408385031215610a0a57600080fd5b82358015158114610a1a57600080fd5b946020939093013593505050565b600060208284031215610a3a57600080fd5b5035919050565b600060208284031215610a5357600080fd5b81516109f0816109be565b6020808252818101527f4f776e61626c653a2063616c6c6572206973206e6f7420746865206f776e6572604082015260600190565b634e487b7160e01b600052601160045260246000fd5b6000600019821415610abd57610abd610a93565b5060010190565b600081610ad357610ad3610a93565b506000190190565b60008219821115610aee57610aee610a93565b500190565b600082610b1057634e487b7160e01b600052601260045260246000fd5b500490565b6000816000190483118215151615610b2f57610b2f610a93565b500290565b600181811c90821680610b4857607f821691505b60208210811415610b6957634e487b7160e01b600052602260045260246000fd5b5091905056fea264697066735822122010111d1b3e2eaa2616b6421f5dbb88539b2112706630ba8707728c4900b79dca64736f6c634300080a0033",
  "linkReferences": {},
  "deployedLinkReferences": {}
}